:020000040800F2
:10000000D05100242D0400086B5A000889560008BE
:10001000695A0008A3060008616A00080000000091
:100020000000000000000000000000006D03000858
:100030000D0B000800000000C9030008F95E00086D
:100040004704000847040008470400084704000864
:100050004704000847040008470400084704000854
:10006000470400084704000847040008A5060008E4
:10007000B1060008BD060008C906000847040008CC
:10008000470400084704000847040008150B00084F
:10009000210B000847040008470400084704000833
:1000A0004704000847040008470400084704000804
:1000B00047040008470400084704000847040008F4
:1000C00047040008470400084704000847040008E4
:1000D00047040008556A0008470400084704000860
:1000E0004704000847040008000000004704000817
:1000F00047040008470400084704000847040008B4
:1001000047040008470400084704000847040008A3
:1001100047040008470400088960000847040008F5
:100120004704000847040008470400084704000883
:100130004704000847040008470400084704000873
:1001400000000000000000000000000000000000AF
:100150004704000847040008470400084704000853
:100160004704000847040008470400084704000843
:100170004704000847040008470400080000000086
:100180004704000847040008B1610008470400085C
:100190004704000847040008470400084704000813
:1001A0004704000847040008470400080000000056
:1001B00047040008470400084704000847040008F3
:1001C0004704000847040008000000000000000089
:1001D00000000000000000004704000800000000CC
:1001E000000000000000000000000000000000000F
:1001F0000000000000000000470400084704000859
:1002000047040008470400080000000047040008F5
:100210004704000847040008470400084704000892
:100220004704000800000000470400080000000028
:1002300047040008470400080000000047040008C5
:100240004704000847040008470400084704000862
:100250004704000847040008470400084704000852
:100260004704000847040008470400084704000842
:100270004704000847040008470400080000000085
:100280004704000847040008470400084704000822
:1002900000000000470400084704000800000000B8
:1002A0000000000047040008470400084704000855
:1002B00047040008470400084704000847040008F2
:1002C000470400087D6000084704000800F002F8B9
:1002D00000F03CF80AA090E8000C82448344AAF1A4
:1002E0000107DA4501D100F031F8AFF2090EBAE8A2
:1002F0000F0013F0010F18BFFB1A43F0010318475A
:10030000C4810000E4810000103A24BF78C878C19D
:10031000FAD8520724BF30C830C144BF04680C600B
:10032000704700000023002400250026103A28BF53
:1003300078C1FBD8520728BF30C148BF0B60704757
:100340001FB507F0ABFF1FBD10B510BD00F074F96D
:100350001146FFF7F5FF07F083F900F092F903B4B7
:10036000FFF7F2FF03BC00F095F900002C4B196871
:100370000868B0E8F04F80F30988BFF36F8F4FF043
:10038000000080F3118870470000000008480068F2
:10039000006880F308884FF0000080F3148862B68C
:1003A00061B6BFF34F8FBFF36F8F00DF00BF00BF99
:1003B00008ED00E0DFF80C00016841F47001016015
:1003C000704700BF88ED00E0EFF30980BFF36F8F47
:1003D000134B1A681EF0100F08BF20ED108A20E999
:1003E000F04F106009B44FF0500080F31188BFF354
:1003F0004F8FBFF36F8F07F065FD4FF0000080F364
:10040000118809BC19680868B0E8F04F1EF0100F99
:1004100008BFB0EC108A80F30988BFF36F8F704774
:100420002C000024EFF30580704700000948804746
:1004300009480047FEE7FEE7FEE7FEE7FEE7FEE7C6
:10044000FEE7FEE7FEE7FEE704480549054A064BDE
:1004500070470000BD5F0008CD020008D0470024AF
:10046000D0510024D0490024D049002453EA020C82
:1004700000F069802DE9F04B4FF00006002B1FBF04
:10048000B3FA83F503FA05F424FA05F65E4012BFC9
:100490001643B2FA82F502FA05F4C5F120051EBF33
:1004A00022FA05FC44EA0C04203556EA044C4FEAD3
:1004B000144418BF641C4FF000084FF0000990422C
:1004C00071EB030C39D3002919BFB1FA81F701FA96
:1004D00007F6B0FA80F700FA07F6C7F120071EBF4B
:1004E00020FA07FC46EA0C062037B6FBF4FCA7EB23
:1004F0000507103F07F01F0BCBF120060CFA0BFB92
:100500002CFA06F644BFB3460026202FA4BF5E4651
:100510004FF0000B5BEA060C08BF4FF0010B19EB24
:100520000B09ABFB027C48EB0608C01B06FB02CCA8
:100530000BFB03CC71EB0C01C1E70B4602464146B5
:100540004846BDE8F08B13B54FF000004FF00001B6
:10055000AFF30080BDE81C40704710B5203AC0F0F2
:100560000B80B1E81850203AA0E81850B1E81850B4
:10057000A0E81850BFF4F5AF5FEA027C24BFB1E8F1
:100580001850A0E8185044BF18C918C0BDE8104062
:100590005FEA827C24BF51F8043B40F8043B08BF6B
:1005A0007047D20728BF31F8023B48BF11F8012B32
:1005B00028BF20F8023B48BF00F8012B70474FF0DE
:1005C000000200B5134694469646203922BFA0E8A3
:1005D0000C50A0E80C50B1F12001BFF4F7AF0907AF
:1005E00028BFA0E80C5048BF0CC05DF804EB8900A0
:1005F00028BF40F8042B08BF704748BF20F8022BE3
:1006000011F0804F18BF00F8012B704770477047FA
:10061000704710B500F008F8006810BD10B504462A
:1006200000F002F8046010BD0048704770470024D5
:1006300000487047704700247546FFF7F9FFAE4643
:1006400005006946534620F00700854618B020B5DE
:10065000FFF7FAFEBDE820404FF000064FF000071C
:100660004FF000084FF0000B21F00701AC46ACE85A
:10067000C009ACE8C009ACE8C009ACE8C0098D46C7
:10068000704710B50446AFF300802046BDE8104027
:10069000FFF765BE01491820ABBEFEE72600020049
:1006A0007047FEE7014800F0B7BE00008406002452
:1006B000014800F0B1BE0000FC060024014800F033
:1006C000ABBE000074070024014800F0A5BE000086
:1006D000EC070024294A016891423AD0274A18328F
:1006E000914236D0254A3032914232D0234A4832A4
:1006F00091422ED0214A603291422AD01F4A78324C
:10070000914226D01D4A9032914222D01B4AA832F3
:1007100091421ED01A4A91421BD0194A1832914276
:1007200017D0174A3032914213D0154A48329142BD
:100730000FD0134A603291420BD0114A7832914265
:1007400007D00F4A9032914203D00D4AA83291420D
:1007500011D1CAB21823103AB2FBF3F26FF30901B8
:10076000032A02F00703074AD25CC26500D9091DBB
:1007700081650846704721F0FF01F9E7100002404B
:1007800010040240FC82000830B5224A01230168AF
:100790009142CAB21BD01F4C1434A14217D01D4C39
:1007A0002834A14213D01B4C3C34A1420FD0194C29
:1007B0005034A1420BD0174C6434A14207D0154CE1
:1007C0007834A14203D0134C8C34A1420CD11421B3
:1007D000114C083AB2FBF1F10F4A803201F01F05CB
:1007E00004EB8101AB4010E00C4D1824103A0D448D
:1007F000B2FBF4F1A82D00D80831094A01F01F041A
:1008000002EB8101064AA3408032603080E80E008E
:1008100030BD00000854025800580258F0FBFDBFDC
:100820000008024010B50279531E072B2DD8174C33
:100830000168A1421BD0154C1434A14217D0134CAF
:100840002834A14213D0114C3C34A1420FD00F4C9C
:100850005034A1420BD00D4C6434A14207D00B4C54
:100860007834A14203D0094C8C34A14203D1084909
:10087000074C443102E00749064C443104EB820244
:10088000C0E91B2101219940416710BD085402585D
:10089000FC580258FC08024010B583694FF0C07440
:1008A000826A0146002053B1B3F5005F15D072B1E2
:1008B000012A0CD0022A0AD0032A09D104E01AB175
:1008C000012A06D0022A03D1C96AC90100D5012034
:1008D00010BDC96AA142FAD010BD002AF7D0012A82
:1008E000F2D0022AF3D0032AF3D010BD2DE9F04F45
:1008F000804E804FDFF8FC911836DFF8F8A14837BA
:100900000468856D0AF1300ADFF8ECB14C45DFF878
:10091000ECC1DFF8ECE16DD0B4426BD0544569D046
:10092000BC4267D0DFF8D081A8F11808444561D0F7
:100930005C455FD064455DD074455BD0DFF8C48111
:10094000444557D0DFF8BC8108F11808444551D020
:10095000DFF8B08108F1300844454BD0DFF8A481BE
:1009600008F14808444545D0DFF8988108F160084F
:1009700044453FD0DFF88C8108F17808444539D0F0
:10098000DFF8808108F19008444533D0DFF87481A6
:1009900008F1A80844452DD0DFF86C81444529D0E2
:1009A000DFF8648108F11408444523D0DFF858814A
:1009B00008F1280844451DD0DFF84C8108F13C08B7
:1009C000444517D0DFF8408108F15008444511D064
:1009D000DFF8348108F1640844450BD0DFF8288142
:1009E00008F17808444505D0DFF81C8108F18C082F
:1009F000444509D1D0E91948C4F80480C46E1CB13B
:100A0000D0E91C48C4F8048004684C452ED0B44298
:100A10002CD054452AD0BC4228D0374E183EB44280
:100A200024D05C4522D0644520D074451ED0354E7C
:100A3000B4421BD0334E1836B44217D0314E303644
:100A4000B44213D02F4E4836B4420FD02D4E6036EC
:100A5000B4420BD02B4E7836B44207D0294E903694
:100A6000B44203D0274EA836B44215D190F85C604A
:100A70003F2406F01F06B440AC600468256825F4E6
:100A8000802525602EE09A600068C160BDE8F08F87
:100A900099600068C260F9E71B4EB4421BD01A4E41
:100AA0001436B44217D0184E2836B44213D0164E1E
:100AB0003C36B4420FD0144E5036B4420BD0124ED6
:100AC0006436B44207D0104E7836B44203D00E4E8E
:100AD0008C36B442DAD190F85C60012406F01F062F
:100AE000B4406C60046863608368402B0368CFD1B6
:100AF000C9E700001000024088000240A000024048
:100B0000B80002401004024008540258704772B600
:100B1000FEE70000014801F02BBD0000480300245F
:100B2000014801F025BD0000E8030024F0B503688A
:100B30004FF6FC716D4C426BD3F884508D4345EAFF
:100B40008205C3F88450036853F8845F068F25F448
:100B50007F0545EA06451D60836B654D9F18026859
:100B6000D2F888308B4343EA8703C2F888300268A2
:100B700052F8883F868F23F4FE0343EA064313604E
:100B8000066856F8A03FC26B8B4307EB420243EA6C
:100B900082033360076857F8A03FB0F8406023F441
:100BA000FE0343EA06433B60D0E9103603FB06220E
:100BB0000368D3F8B0608E4346EA8206C3F8B0609B
:100BC0000368B0F84860D3F8B07027F4FE0747EA2E
:100BD0000646C3F8B060D0E91267036806FB072237
:100BE000D3F8AC608E4346EA8206C3F8AC60D0E925
:100BF0001467036806FB0722D3F8F0608E4346EAC9
:100C00008206C3F8F0600368B0F85860D3F8F0705B
:100C100027F47C1747EA0646C3F8F0600368876D3F
:100C200053F8C06F02EB47028E4346EA8201196017
:100C30000168B0F85C20D1F8C03023F47C1343EA9B
:100C40000242C1F8C020016890F86020D1F8C0309D
:100C500023F07C5343EA0262C1F8C020416B04EBED
:100C60008101C166826B01EB82020267C36B02EBFA
:100C7000C3024267D0E91034634302EB8302826708
:100C8000D0E91234634302EB8302C267D0E9143423
:100C9000634302EB8302C0F88020836D02EBC30341
:100CA000C0F88430C46D826E544303EB8403C0F8F3
:100CB0008830046E544303EB8402C0F89020AA42AB
:100CC0000AD9D0F89C20032142F02002C0F89C20D1
:100CD00080F898100120F0BD002200E004C1D0F897
:100CE00090308B42FAD80020F0BD000000AC0040EC
:100CF000FCD30040F0B58E680C69D1E9005744EA96
:100D00000604DFB145F080452C43866ED1E906C567
:100D10004F695E4391F8203045EA0C05D0F884E035
:100D20000020D1F80CC047EA03630D4F1D430EEBC2
:100D3000860345EA0C05E3E802450AE044EA8544F7
:100D4000E3E71418155C001DD4F8014045EA0424BB
:100D500010C3CC6807EB144424788442F1D8F0BD6A
:100D60000483000830B5887055220A7004244A7044
:100D70001F25CC7000230D7123304B71C043887147
:100D800030BD00000748012110B502F079F8064A8D
:100D90000649107020B1012801D10020487010BD13
:100DA0000120FBE700000258980000242846002498
:100DB0001B499FED1A2A9FED1B1A81ED002A90ED29
:100DC000082A9FED190ADFED190AC2EE012ADFEDAC
:100DD000181AC1ED012A90ED0D2A22EE002AC2EE6A
:100DE000202A71EEE21AC1ED021AD0ED121A61EE5C
:100DF000801A81EEA02A81ED032AD0ED171A61EE48
:100E0000801A81EEA02A81ED042AD0ED1C0A20EE82
:100E1000800AC0EE010AC1ED050A7047DA0FC93F2A
:100E2000A0450024000034C3DA0F494000003443D9
:100E3000DA0FC9BF2DE9F84F044602F02BF80090F5
:100E40003CB194F83500022806D08021616500206D
:100E5000E4E00120BDE8F88FC74DC74EC6491835FC
:100E600020683036DFF81483DFF814938842DFF807
:100E700014A3DFF814B32ED0A8422CD0B0422AD04D
:100E8000404528D0484526D0504524D0584522D04A
:100E9000BD4A183290421ED0BC4A90421BD0BB4A79
:100EA0001832904217D0B94A3032904213D0B74A24
:100EB000483290420FD0B54A603290420BD0B34ACC
:100EC0007832904207D0B14A9032904203D0AF4A74
:100ED000A832904209D1026822F01E020260206806
:100EE000426922F08002426103E0026822F00E02B1
:100EF000026027688F4238464DD0A8424BD0B0429E
:100F000049D0404547D0484545D0504543D0584545
:100F100041D09D4A183290423DD09C4A90423AD0EE
:100F20009A4A1832904236D0984A3032904232D0A3
:100F3000964A483290422ED0944A603290422AD04B
:100F4000924A7832904226D0904A9032904222D0F3
:100F50008E4AA83290421ED08D4A90421BD08C4AB5
:100F60001432904217D08A4A2832904213D0884ACD
:100F70003C3290420FD0864A503290420BD0844A85
:100F80006432904207D0824A7832904203D0804A3D
:100F90008C32974204D1206E026822F48072026083
:100FA00075492068884228D0A84226D0B04224D073
:100FB000404522D0484520D050451ED058451CD031
:100FC00071491831884218D07049884215D06F494C
:100FD0001831884211D06D49303188420DD06B49AB
:100FE0004831884209D069496031884205D0674953
:100FF0007831884201D065499031016821F00101C2
:1010000001600EE001F046FF0099401A052808D95A
:10101000202262650321002084F8351084F8340012
:1010200017E73868C007EDD1534A01212068904284
:101030002ED0A8422CD0B0422AD0404528D04845D6
:1010400026D0504524D0584522D04F4B18339842D3
:101050001ED04E4B98421BD04C4B1833984217D0A1
:101060004A4B3033984213D0484B483398420FD004
:10107000464B603398420BD0444B7833984207D0AC
:10108000424B9033984203D0404BA833984208D14A
:1010900094F85C703F23A06D07F01F07BB4083608E
:1010A00007E094F85C30A06D03F01F0301FA03F32E
:1010B0004360206890424DD0A8424BD0B04249D006
:1010C000404547D0484545D0504543D0584541D08C
:1010D0002D4A183290423DD02C4A90423AD02B4AA9
:1010E0001832904236D0294A3032904232D0274AC4
:1010F000483290422ED0254A603290422AD0234A6C
:101100007832904226D0214A9032904222D01F4A13
:10111000A83290421ED01E4A90421BD01C4A143264
:10112000904217D01A4A2832904213D0184A3C32C3
:1011300090420FD0164A503290420BD0144A64327B
:10114000904207D0124A7832904203D0104A8C3233
:1011500090420BD1D4E919024260E06E30B10268CE
:1011600022F480720260D4E91C024260002084F8FC
:10117000351084F834006DE610000240580002403B
:101180007000024088000240A000024010040240AB
:10119000085402582DE9F05F28B190F83510022963
:1011A00004D0802141650120BDE8F09F904C904B18
:1011B0000168183C18338E4ADFF83C92A1428D4CEE
:1011C000DFF838E28E4FDFF83CB2DFF83CA28F4DFB
:1011D0008F4E31D091422FD099422DD0A1422BD0A9
:1011E000494529D0714527D0B94225D0DFF810C232
:1011F0000CF1180C61451FD0DFF808C2ACF1600C8F
:10120000614519D0DFF8FCC1ACF1480C614513D041
:10121000DFF8F0C1ACF1300C61450DD0DFF8E4C16E
:10122000ACF1180C614507D0594505D0514503D0A4
:10123000A94201D0B1422CD1DFF8B4C14FF004086B
:1012400080F83580ACF1180C61451DD091421BD05F
:10125000994219D0A14217D0494515D0714513D0F4
:10126000B94211D06648183081420DD065486038C7
:10127000814209D063484838814205D061483038FE
:10128000814201D05F481838086820F001000860EA
:10129000ABE0D1F800C02CF00E08DFF854C1C1F863
:1012A0000080ACF1180C0168614527D0914225D02F
:1012B000994223D0A14221D049451FD071451DD06C
:1012C000B9421BD0DFF838C10CF1180C614515D0BC
:1012D000DFF830C1ACF1600C61450FD0DFF824C1FC
:1012E000ACF1480C614509D0DFF818C1ACF1300C05
:1012F000614503D0DFF80CC1ACF1180CD1F800C087
:101300002CF0010CC1F800C0DFF8E4804FF0010CB4
:101310000168A8F11808414546D0914244D099424D
:1013200042D0A14240D049453ED071453CD0B9425F
:101330003AD0334A1832914236D0324A603A91421A
:1013400032D0304A483A91422ED02E4A303A914219
:101350002AD02C4A183A914226D0594524D05145DA
:1013600022D0A94220D0B1421ED02A4A91421BD09D
:10137000284A1432914217D0264A2832914213D07B
:10138000244A3C3291420FD0224A503291420BD033
:10139000204A6432914207D01E4A7832914203D0EB
:1013A0001C4A8C32914218D1016E0A6822F4807274
:1013B0000A6090F85C20816D02F01F020CFA02F2C4
:1013C0004A60D0E919124A60C16E31B10A6822F44C
:1013D00080720A60D0E91C124A600022016D80F818
:1013E00035C080F8342001B188470020DCE60000D9
:1013F000280002405800024070000240880002406D
:10140000A00002407004024088040240A004024090
:10141000B8040240085402582DE9FC5F0446F74E18
:101420000020DFF8D88300904FF41652F44808F1FA
:101430001808A56DDFF8C493DFF8C0A3016809F1AF
:10144000300920680AF1480AB1FBF2F1B04201917B
:101450002F68D5F800C0DFF8ACB335D041468842DC
:1014600032D0484530D050452ED058452CD0E54993
:101470001831884228D0E3493031884224D0E149EC
:101480004831884220D0E04988421DD0DE491831D9
:10149000884219D0DC493031884215D0DA494831C8
:1014A000884211D0DFF860E30EF1600E70450BD07A
:1014B000D54A7832904207D0D34B9033984203D02C
:1014C000D149A83188427DD194F85C20082102F0EE
:1014D0001F0201FA02F23A424AD0B04232D04045ED
:1014E00030D048452ED050452CD058452AD0C54A3A
:1014F0001832904226D0C34A3032904222D0C14A9C
:10150000483290421ED0C04A90421BD0BE4A183288
:10151000904217D0BC4A3032904213D0BA4A483277
:1015200090420FD0B84A603290420BD0B64A78321F
:10153000904207D0B44A9032904203D0B24AA832C7
:10154000904203D1026802F0040202E0026802F055
:1015500008026AB1026822F00402026094F85C009A
:1015600000F01F008140A960606D40F001006065DF
:1015700094F85C00012100F01F008140394240D006
:101580002068B04234D0404532D0484530D0504534
:101590002ED058452CD09B4A1832904228D0994AD8
:1015A0003032904224D0974A4832904220D0964A16
:1015B00090421DD0944A1832904219D0924A30324B
:1015C000904200E0AFE113D08F4A483290420FD0F2
:1015D0008D4A603290420BD08B4A7832904207D0CD
:1015E000894A9032904203D0874AA83290427DD1F6
:1015F000406910F0800F04D0A960606D40F00200D7
:10160000606594F85C00042100F01F0081403942BD
:101610003ED02068B04232D0404530D048452ED030
:1016200050452CD058452AD0764A1832904226D0C0
:10163000744A3032904222D0724A483290421ED0D0
:10164000714A90421BD0704A1832904217D06E4AAD
:101650003032904213D06C4A483290420FD06A4ADE
:10166000603290420BD0684A7832904207D0664A86
:101670009032904203D0644AA83290424ED1006822
:1016800010F0020F04D0A960606D40F004006065A6
:1016900094F85C00102100F01F008140394258D0BE
:1016A0002068B04234D0404532D0484530D0504513
:1016B0002ED058452CD0534A1832904228D0514A47
:1016C0003032904224D04F4A4832904220D04E4A85
:1016D00090421DD04C4A1832904219D04A4A3032BA
:1016E000904215D0484A4832904200E014E00FD0B2
:1016F000454A603290420BD0434A7832904207D03C
:10170000414A9032904203D03F4AA832904207D1DA
:10171000006800F0080006E0006872E70068B7E7BC
:10172000006800F00400A0B1A960206801684903C6
:1017300004D50068000308D5A16C07E00168C9055D
:1017400003D4016821F008010160216C09B1204631
:10175000884794F85C00202100F01F008140394246
:1017600079D02068B04232D0404530D048452ED0A4
:1017700050452CD058452AD0224A1832904226D0C3
:10178000204A3032904222D01E4A483290421ED027
:101790001D4A90421BD01C4A1832904217D01A4A58
:1017A0003032904213D0184A483290420FD0164A35
:1017B000603290420BD0144A7832904207D0124ADD
:1017C0009032904203D0104AA832904203D1006870
:1017D00000F0100002E0006800F00200B0B3A96061
:1017E00094F835000428206801680FD049037ED59D
:1017F000006800032BD4616C2AE000001000024056
:1018000024000024700002401004024021F0160160
:1018100001602068416921F080014161206C08B9B4
:10182000A06C20B12068016821F00801016094F8E3
:101830005C303F21012003F01F0300229940A96082
:1018400084F8350084F83420216D65E003E0E16B15
:1018500009B120468847606D00287DD0606DC007C3
:1018600059D02068042184F83510B0422BD040456F
:1018700029D0484527D0504525D0584523D09D49EB
:10188000884220D09B49183188421CD09949303178
:10189000884218D09849884215D097491831884213
:1018A00011D09549303188420DD093494831884252
:1018B00009D091496031884205D08F4978318842FA
:1018C00001D08D499031016821F00101016020684B
:1018D0000099019A491C0091914202D80168C907F8
:1018E000F6D10068C00710D003200FE0FFE70168C1
:1018F000C905ACD403680121002223F01003036062
:1019000084F8351084F83420A1E7012084F83500EC
:10191000002084F83400E16C00291DD002B020467C
:10192000BDE8F05F0847754988421DD073491431FE
:10193000884219D071492831884215D06F493C310D
:10194000884211D06D49503188420DD06B496431C5
:10195000884209D0694900E084E07831884203D0A8
:1019600066498C3188427DD194F85C8004270168F7
:1019700008F01F0807FA08F717EA0C0F009746D07F
:101980004F0744D500980F04686003D5C8033CD4C2
:10199000A16CC1E7880638D42068B0422DD05549E3
:1019A0006039884229D0484527D0504525D0584530
:1019B00023D05049884220D04E49183188421CD04B
:1019C0004C493031884218D04B49884215D04A4999
:1019D0001831884211D04849303188420DD04649EB
:1019E0004831884209D0704507D0904205D09842CE
:1019F00003D04149A831884203D1016821F0080190
:101A000002E0016821F004010160216C84E70227F3
:101A100007FA08F717EA0C0F00974ED08F074CD53E
:101A200000980F04686003D5C80344D4616C73E761
:101A3000880640D42068B0422FD02E4960398842B1
:101A40002BD0484529D0504527D0584525D0294985
:101A5000884222D02749183188421ED0254930318A
:101A6000884200E044E018D02349884215D022493A
:101A70001831884211D02049303188420DD01E499A
:101A80004831884209D0704507D0904205D098422D
:101A900003D01949A831884203D1016821F014010B
:101AA00002E0016821F00A010160012184F835108B
:101AB000002084F83400E16B2EE7082202FA08F2D5
:101AC00012EA0C0F14D0090712D5016821F00E019B
:101AD000016094F85C100120002201F01F0100FA5F
:101AE00001F16960606584F8350084F8342012E7FC
:101AF000BDE8FC9F880002401004024008540258D0
:101B00002DE9F05F044601F0C5F9002C07467DD0B1
:101B1000E24E022120684FF00308DFF884934FF073
:101B20000005DFF880A3B042DFF87CB334D0DB4A95
:101B30001832904230D048452ED050452CD05845D0
:101B40002AD0D94A1832904226D0D74A3032904211
:101B500022D0D54A483290421ED0D44A90421BD05F
:101B6000D24A1832904217D0D04A3032904213D025
:101B7000CE4A483290420FD0CC4A603290420BD0CD
:101B8000CA4A7832904207D0C84A9032904203D075
:101B9000C64AA83290427DD184F83510B04284F80C
:101BA00034502ED0BD49183188422AD0484528D01B
:101BB000504526D0584524D0BB491831884220D002
:101BC000B949303188421CD0B7494831884218D0D1
:101BD000B649884215D0B5491831884211D0B34969
:101BE000303188420DD0B1494831884209D0AF49DF
:101BF0006031884205D0AD497831884201D0AB4987
:101C00009031016821F00101016008E025E100BF89
:101C100001F040F9C01B052801D920211AE12068F4
:101C20000068C007F4D1D4E90203216810341843D6
:101C30008E4694E88410D4E9033809683A43104387
:101C40009B4A40EA0C00676918431140103C40EA87
:101C50000800042F40EA010003D1D4E90B1211431C
:101C600008436168A1F12902052A0BD9163A032A13
:101C700008D9083A012A05D9083A032A02D9743941
:101C8000032901D840F48010CEF800002068676A6C
:101C9000406900E020E0042F20F0070047EA000739
:101CA0000DD1D4E90A01074349B12046FEF7F4FDFE
:101CB00028B140206065012184F83510CDE020680E
:101CC00047612046FEF706FD94F85C203F2102F0B4
:101CD0001F029140816055E0764A90421BD0754BBF
:101CE0001433984217D0734B2833984213D0714B5A
:101CF0003C3398420FD06F4B503398420BD06D4B12
:101D00006433984207D06B4B7833984203D0694BC9
:101D10008C3398427ED184F8351084F83450664B69
:101D20000168A26801EA030E402A74D0802A73D0A9
:101D30005FF00002D4E90378D4E9053142EAD70222
:101D400042EAD8085B4AD4E9077C48EAD30848EA63
:101D5000D10141EAD701524241EA1C11142341EA60
:101D60000E01016020681044B0FBF3F08000E065D4
:101D70002046FEF7AFFC94F85C20012102F01F0220
:101D8000914041602068B04257D0444918318842A0
:101D900053D0484551D050454FD058454DD0424979
:101DA0001831884249D040493031884245D03E49B7
:101DB0004831884241D03D4988423ED03B491831A4
:101DC00088423AD039493031884236D03749483193
:101DD000884232D03549603188422ED0334978313B
:101DE00088422AD031499031884226D02F49A831E3
:101DF000884222D02F4988421FD02E491431884270
:101E00001BD02C492831884217D02A493C318842BE
:101E100013D002E01DE017E018E026495031884257
:101E20000BD024496431884207D022497831884256
:101E300003D020498C31884229D12046FEF7A4FCEA
:101E4000A06880280CD00CE0102273E74FF4804289
:101E500070E74021616584F835800120BDE8F09F7E
:101E60006560216E20790860D4E9190141606068DD
:101E7000401E072808D82046FEF7D4FCE06E056017
:101E8000D4E91C01416002E0E56625676567012031
:101E9000656584F835000020E0E70000100002408E
:101EA000400002405800024070000240100402400E
:101EB0003F8010FE085402580F00FEFF2DE9F84F36
:101EC00004008C464FF00000009014D094F83400C9
:101ED000012812D094F835500120002184F83400F4
:101EE000012D0CD0C00260650120009084F83410F0
:101EF0000098BDE8F88F0120FBE70220F9E78C4D40
:101F00000226206884F83560A8428A4D61658A4EB1
:101F10008A4FDFF82C82DFF82C92DFF82CA2DFF852
:101F20002CB226D0A84224D0B04222D0B84220D031
:101F300040451ED048451CD050451AD0584518D0B1
:101F40008349884215D082491831884211D080498E
:101F5000303188420DD07E494831884209D07C49D1
:101F60006031884205D07A497831884201D0784979
:101F70009031016821F00101016061462046FEF7C1
:101F8000B5FC6B49206888422CD0A8422AD0B042C8
:101F900028D0B84226D0404524D0484522D05045CC
:101FA00020D058451ED06A4A90421BD0684A183249
:101FB000904217D0664A3032904213D0644A483279
:101FC00090420FD0624A603290420BD0604A783221
:101FD000904207D05E4A9032904203D05C4AA832C9
:101FE00090420CD1026822F01E0242F016020260FA
:101FF000206C88B12068026842F008020BE0026899
:1020000022F00E0242F00A020260206C20B1206829
:10201000026842F004020260206888424BD0A84265
:1020200049D0B04247D0B84245D0404543D048455A
:1020300041D050453FD058453DD0454A90423AD0D6
:10204000434A1832904236D0414A3032904232D020
:102050003F4A483290422ED03D4A603290422AD0C8
:102060003B4A7832904226D0394A9032904222D070
:10207000374AA83290421ED0364A90421BD0354A89
:102080001432904217D0334A2832904213D0314A4A
:102090003C3290420FD02F4A503290420BD02D4A02
:1020A0006432904207D02B4A7832904203D0294ABA
:1020B0008C3290420DD1206E0268D20303D50268A3
:1020C00042F480720260E06E18B1026842F48072DD
:1020D00002602068884226D0A84224D0B04222D094
:1020E000B84220D040451ED048451CD050451AD09B
:1020F000584518D01649884215D0154918318842DC
:1021000011D01349303188420DD0114948318842ED
:1021100009D00F496031884205D00D497831884295
:1021200001D00B499031016841F001010160DFE607
:1021300010000240280002404000024058000240C7
:102140007000024088000240A0000240B800024037
:10215000100402400854025870B5044600F09AFE7C
:102160000546601C02D004480078044400F092FE4A
:10217000401BA042FAD370BD1800002410B590F89F
:102180009830012B09D0022B07D0D0F89C1041F0D9
:102190000201C0F89C10012010BD03689C6D0C4228
:1021A00003D1DC6D44F0010404E09C6D31EA0404C9
:1021B0001FD00324DC658B0505D50368D3F8E04008
:1021C0001443C3F8E0404B0505D50368D3F8E44059
:1021D0001443C3F8E4400068084A01EA0203446D6E
:1021E000074A1C434465106840EA91701060002063
:1021F00010BDDC6D44F00204DCE70000FFFFCF3FC0
:1022000014A8004070B5044690F89800022804D045
:10221000D4F89C0040F008000DE02068D0F8C030F1
:1022200013F07C5F0BD0D0F8C4309B020CD5D4F8EF
:102230009C0040F40070C4F89C00012070BDD4F8EC
:102240009C0040F02000F6E7D0F8C400C0F304453D
:1022500020462B46FEF74EFD21680120A840C1F81C
:10226000D000C4F89400002070BD704790F89830FA
:10227000012B07D0D0F89C1041F00401C0F89C104D
:102280000120704761B10068012913D0D0F8B01067
:1022900021F0FE4141EA0261C0F8B0100020704711
:1022A0000068D0F8F01021F07C5141EA0261C0F8DA
:1022B000F010F3E7D0F8A01021F0FE4141EA0261EE
:1022C000C0F8A010EAE770B590F89820012A09D06C
:1022D000022A07D0D0F89C1041F00201C0F89C10EF
:1022E000012070BD0B68CA6883B10B69072A43EAF5
:1022F000427325D00C7A4A6942EA84724968006FB9
:1023000000EBC100C0E90032002070BD072A0DD0EB
:102310000C7AD6060D8A4B6943EA847246EA054375
:10232000C06E49681A4340F82120EDE70B8A4FF050
:102330006055D1E9062442EA034245EA0423EFE767
:102340008A69DBE730B590F89850039C012D07D0DF
:10235000D0F89C1041F00401C0F89C10012030BD61
:102360000D01016845EA820040EA43002043C1F8BC
:102370008000002030BD0000134910B5884222D1F2
:1023800000F027F811490022C3010A8003D50A880A
:1023900042F001020A80020203D50A8842F00202DA
:1023A0000A80820103D50A8842F004020A800201F1
:1023B00003D50A8842F008020A80C00003D50888C5
:1023C00040F01000088010BD48030024BC00002429
:1023D0007047D0F89C007047F0B590F89840002501
:1023E000022C04D0D0F89C1041F008012BE04029C9
:1023F0004FF0004605D0412929D0046D8C4219D9EF
:1024000042E00468D4F8A07017F4FE0F12D0D4F89C
:10241000A4707F0613D0D4F8A470FF0105D5D4F8BA
:10242000A070B6EBD77F00D10125D4F8A470466F19
:10243000446C24E0D0F89C1041F0200103E0D0F877
:102440009C1041F48071C0F89C100120F0BD04681C
:10245000D4F8B07017F4FE0FECD0D4F8B4707F0647
:10246000EDD0D4F8B470FF0105D5D4F8B070B6EB58
:10247000D77F00D10125D4F8B470866FC46CC7F340
:1024800005273D446C4302E0446DC66F4C4306EBA8
:102490008404266816F080465660266836D026F0FA
:1024A00060461660D4F800C000262F4F0CF0005C88
:1024B000C2F808C0D4F800C00CF0004CC2F810C03C
:1024C000B4F804C01FFA8CFCC2F81CC0D4F804C0D5
:1024D0000CF4702CC2F80CC0D4F804C00CF4801CAE
:1024E000C2F814C0D4F804C00CF4001CC2F818C020
:1024F000D4F804C0CCF3066CC2F820C0D4F804C0F1
:1025000008344FEADC7CC2F824C008E0C6F38A46EF
:10251000C7E700BF14F806C003F806C0761CD2F85F
:102520000CC007EB1C4C9CF800C0B445F2D8402905
:102530000AD041290CD020294FF001020CD20068AA
:102540008A40C0F898200DE00068C0F8A85009E063
:102550000068C0F8B85005E0006801F01F018A402B
:10256000C0F89C200020F0BD0483000870470000E4
:102570002DE9FF5FDFF80CB304460BF10401DBF833
:10258000000025680F68AA468007D5F85090696D4D
:10259000D5F850806E6D2A6DD5F854C02B6D00EAC9
:1025A0008770009009F470496F6D286D01EA090188
:1025B0000191DAF85410DAF85490DAF8505008F033
:1025C0000F0806EA0806029602F0F00203F07153C3
:1025D0006FEA09061F4000F060700CEA020CCDF8AB
:1025E0000CC0F20501EA00090CD4E843C00509D487
:1025F00000214FF48073CAF85030CBF80010204609
:10260000FFF7B4FF700512D4E84340050FD42068EB
:1026100000234FF48068D0F8DC20D0F8E410C0F834
:102620005080CBF800301140204600F016FBDFF858
:1026300058A2009850B12268830F00EA0A00106582
:10264000CBF8003020460099FFF70FFE019850B1FB
:102650002268830F00EA0A001065CBF8003020469C
:10266000019900F0FCFA029850B12268830F00EA49
:102670000A001065CBF800302046029900F0BEFA3F
:10268000039850B12268830F00EA0A001065CBF866
:1026900000302046039900F0B9FA30050CD4E84325
:1026A000000509D4236800204FF400621A65CBF8B6
:1026B0000000204600F0D4FAB00512D4E8438005AB
:1026C0000FD4206800234FF40078D0F8D820D0F839
:1026D000E010C0F85080CBF800301140204600F0E8
:1026E000BDFA30030CD4E843000309D4236800206A
:1026F0004FF400221A65CBF80000204600F07CFA67
:10270000F0030CD4E843C00309D4236800204FF43D
:1027100080321A65CBF80000204600F09DFA700365
:102720000CD4E843400309D4226800204FF48023EE
:102730001365CBF80000204600F08DFAB0030FD4EB
:10274000E84380030CD4236800204FF400321A655C
:10275000CBF80000D4F89C0040F08000C4F89C0046
:10276000B9F1000F0BD022684FEA997309EA0A0009
:102770001065CBF8003049462046FFF729FE5FB1CF
:102780002268BB0F07EA0A001065CBF80030D4F8C6
:102790009C003843C4F89C003C492068884268D1BA
:1027A000606881468068800763D0D9F82060D9F8D6
:1027B0002410D9F82080D9F82400D9F820C0D9F8FD
:1027C0002470D9F82030D9F82450D9F8202003F407
:1027D000FC4306F00F0AD9F824601D40D9F824B054
:1027E00008F030080CF4C07C02F4F02211EA0A016F
:1027F00000EA080807EA0C0706EA0206D9F820A052
:1028000004D0C9F82010204600F022FAB8F10000E8
:1028100005D0616808624146204600F01BFA6FEA65
:102820000B0040060ED46FEA0A0040060AD4606826
:102830004021C36BC26B01622046190C02F03F02BB
:1028400000F007FA2FB1606807623946204600F0B1
:10285000FEF935B160680562D4F89C002843C4F8DD
:102860009C0036B160680662D4F89C003043C4F81E
:102870009C00D4F89C00002802D02046FFF77CFD85
:10288000BDE8FF9F10A80040FFFFCF3F00A0004021
:102890002DE9F04194B08D494C2204466846FDF77D
:1028A0005CFE64B18A4D2068A84202D100F58070B8
:1028B000606094F898004FF0000820B108E0012013
:1028C00014B0BDE8F081204684F8998000F002F948
:1028D0002068816921F01001816100F0DBFA032793
:1028E000064604E000F0D6FA801B0A2811D82068BA
:1028F00080690007F6D42068816941F00101816197
:1029000000F0C8FA06460DE000F0C4FA801B0A2861
:1029100008D9D4F89C0040F00100C4F89C0084F869
:102920009870CCE720688069C007EDD02068816985
:1029300041F002018161207C01282068816937D043
:1029400041F040018161607C01282068816932D0BA
:1029500021F480418161A07C0128206881692DD00B
:1029600041F4805181612068A268816921F440713D
:10297000114381612068816921F0A401816120688F
:10298000016921F010010161E068012819D010B33C
:1029900002281BD02068816941F080018161206894
:1029A000016941F010010161E06803280ED012E0D6
:1029B00021F04001C6E741F48041CBE721F480518A
:1029C000D0E72068816941F0040103E02068816953
:1029D00041F020018161207E6FF0FF02D4E907738E
:1029E000A68A1102400602EB0727A0F100703843C7
:1029F00027685B1E184301EB06463043F861A06868
:102A0000B0F5407F11D104F12800A68C6FF00F0CB7
:102A100089C801EB0641401E02EB032210432268E5
:102A20000CEB071318430843D060206E30B12068C8
:102A3000626ED0F8C0101143C0F8C010D4E917126C
:102A40006846D14209D02168A36E51F8C82F50F8CA
:102A5000233022F007021A430A60216C49B1216831
:102A6000626C51F8BC3F50F8226023F007023243F9
:102A70000A60A16C51B12168E36C51F8BC2F50F889
:102A8000233022F0700242EA03120A60216D51B134
:102A90002168626D51F8BC3F50F8220023F4E062D7
:102AA00042EA002008602068A84204D1606881687A
:102AB00021F003018160C4F894800121C4F89C8056
:102AC00084F898102046FEF731F8F9E614830008E0
:102AD00000A000402DE9F043B5B0804614212EA897
:102AE000FDF76DFDB8216846FDF769FD3D4D0026F7
:102AF000D8F800004FF080513B4A0C3D384F4FF062
:102B00000208384C90424FF0090930D100201B9147
:102B10004A13CDE90020684600F00CFC08B1FDF72F
:102B2000F6FF3868401C3860012807D1206840F45F
:102B300080702060206800F480703390286840F036
:102B400008002860286803222E922EA900F00800B1
:102B5000CDE92F863196CDE93290244800F082F8F5
:102B600000220521132000F033FA132033E0204A1D
:102B7000904232D100201B914FF40042CDE9002059
:102B8000684600F0D7FB08B1FDF7C1FF3868401C6C
:102B90003860012807D1206840F4807020602068E8
:102BA00000F480703390286840F0020028602868A4
:102BB00060222E922EA900F00200CDE92F863196D8
:102BC000CDE932900B4800F04DF800220521142089
:102BD00000F0FEF9142000F0EDF935B0BDE8F08307
:102BE00014000024EC44025800A00040000C0258DD
:102BF00000A40040000402587047000002498842C7
:102C000001D104F0F7BB7047480300240249884211
:102C100001D104F001BC7047E803002490F898103B
:102C2000012907D0D0F89C1041F00401C0F89C1095
:102C300001207047022180F89810002201688B69FA
:102C400023F001038B61C0F89C2010467047704749
:102C500070477047704770477047704770477047BC
:102C6000704700002DE9F84F03247A4D00234FF000
:102C700001094FF0B04B4FF00F0AE4E009FA03F6F8
:102C8000324078D00F7907F00307012F01D0022FCF
:102C90001AD187684FEA430ED1F80CC004FA0EF837
:102CA00027EA08070CFA0EFC4CEA070CC0F808C02B
:102CB000476891F804C0B743CCF3001C0CFA03FC3E
:102CC0004CEA070CC0F804C00E79F643B6070BD0E7
:102CD000C6684FEA43088F6804FA08FC26EA0C0627
:102CE00007FA08F73743C7600E7906F00306022E8D
:102CF00012D1DE080F694FEA437C00EB8606B64628
:102D0000366A4FEADC6C0AFA0CF807FA0CF726EA86
:102D100008063743CEF820700F7906684FEA43085B
:102D200007F0030704FA08FC07FA08F726EA0C067E
:102D3000374307604E6816F4403F1CD0464E376854
:102D400047F00207376036689F0706F002060096D4
:102D500023F0030606F1B046B6463F0FD6F80864E6
:102D6000DFF8F8800AFA07FC404526EA0C0603D192
:102D70004FF0000C3AE065E0DFF8E4C0604502D1B6
:102D80004FF0010C32E0DFF8DCC0604502D14FF0BB
:102D9000020C2BE0DFF8D0C0604502D14FF0030CED
:102DA00024E0DFF8C8C0604502D14FF0040C1DE0FC
:102DB000DFF8BCC0604502D14FF0050C16E0DFF82B
:102DC000B4C0604502D14FF0060C0FE0DFF8A8C098
:102DD000604502D14FF0070C08E0DFF8A0C0604565
:102DE00002D14FF0090C01E04FF00A0C0CFA07FC7D
:102DF0004CEA060CCEF808C44F68DBF80060FF020E
:102E000026EA020600D516435F46CBF80060D1F8EB
:102E100004C0DBF804605FEA8C2C26EA020600D5C9
:102E200016437E606E684F6826EA0206BF0300D52F
:102E300016436E602E684F6826EA0206FF0300D52F
:102E400016432E605B1C0A6832FA03F67FF416AF55
:102E5000BDE8F88F80000058F44402580000025882
:102E60000004025800080258000C025800100258D2
:102E70000014025800180258001C0258002402587E
:102E80000069084000D0012070470AB18161704795
:102E90000904FBE70148806870470000180000241F
:102EA000024881680278114481607047180000244C
:102EB000032010B500F0ACF801F07CF80F4A10497F
:102EC00014681368C4F3032203F00F038A5CC95C1F
:102ED00002F01F0201F01F01D0400A4A20FA01F15E
:102EE0001160094908600F2000F010F808B10120B6
:102EF00010BD00F04DF8002010BD0000184402582D
:102F000088830008280000242400002410B510281D
:102F100004468AB02AD200220146A12000F058F8C7
:102F2000A12000F047F8154804601548016841F0F9
:102F300080710160006808A900F0807009906846FF
:102F400000F0C4FF01F024F80E49400000220E4CAE
:102F5000B0FBF1F10D4840F2E7330460C0E9033201
:102F6000491EC0E9011201F0DFFD10B101200AB0D5
:102F700010BD064801F028FEF9E700001C000024FF
:102F8000EC44025840420F0000E000406408002476
:102F9000074882B0016841F0020101600068002228
:102FA0000F2100F002000090901E02B000F010B857
:102FB000F4440258002809DB410900F01F0289008F
:102FC000012001F1E0219040C1F8000170470000AC
:102FD0000E4BF0B41B680D46C3F30223C3F1070682
:102FE000042E00D90426191D072901D2002300E070
:102FF000DB1E012404FA06F19C40491E2940641E90
:10300000994014402143F0BC03F00ABE0CED00E0EF
:10301000064900F0070210B54FF6FF040868044B9C
:10302000204040EA02201843086010BD0CED00E08B
:103030000000FA05134970B50A68D243520705D556
:10304000096801F00701814213D118E00A6822F0F3
:10305000070202430A60FFF71DFF0A4D4FF47A761C
:103060000446083D07E000BFFFF714FF001BB04215
:1030700001D9012070BD2868C0438004F4D4002029
:1030800070BD00000C48025810B500F04DFF054916
:103090000968054AC1F30211515C01F01F01C840E3
:1030A00010BD00002044025888830008494930B50B
:1030B000484C0B1D0A68143409681D68246802F026
:1030C0000303C5F30012C1F30531C4F3CC04002996
:1030D00014FB02F200EE102AF8EE400A75D03F4AC7
:1030E0009FED3D1AB7EE000A6BB1DFED3D1A012BE3
:1030F00001D0022B64D002EE101A1168F8EE422AB9
:1031000081EEA22A21E0334C283C23689B0612D58D
:10311000344B246801EE901A1168C4F3C104F8EE30
:10312000612AE34001EE903AC1F30801F8EE611A1A
:1031300081EEA22A0BE001EE901ADFED2B2A00BFF0
:10314000F8EE611A116882EEA12AC1F3080101EEBE
:10315000901A1168F8EE611A40EE811A71EE800A39
:1031600062EE200AC1F3462101EE101AB8EE411AB0
:1031700031EE001AC0EE811ABCEEE11A80ED001AA1
:103180001168C1F3064101EE101AB8EE411A31EE92
:10319000001AC0EE811ABCEEE11A80ED011A116826
:1031A000C1F3066101EE101AB8EE411A31EE000AC1
:1031B00080EE801ABCEEC10A80ED020A30BD04E048
:1031C00001EE901ADFED092ABAE7002101604160A3
:1031D0008160F3E72844025800000039384402585F
:1031E0000024744A0090D0030024744C001BB74B99
:1031F000494930B5484C0B1D0A681C3409681D68E4
:10320000246802F00303C5F30022C1F30551C4F39F
:10321000CC04002914FB02F200EE102AF8EE400A5A
:1032200075D03F4A9FED3D1AB7EE000A6BB1DFED56
:103230003D1A012B01D0022B64D002EE101A116846
:10324000F8EE422A81EEA22A21E0334C283C236882
:103250009B0612D5344B246801EE901A1168C4F312
:10326000C104F8EE612AE34001EE903AC1F308018F
:10327000F8EE611A81EEA22A0BE001EE901ADFED62
:103280002B2A00BFF8EE611A116882EEA12AC1F361
:10329000080101EE901A1168F8EE611A40EE811AE9
:1032A00071EE800A62EE200AC1F3462101EE101A87
:1032B000B8EE411A31EE001AC0EE811ABCEEE11AE6
:1032C00080ED001A1168C1F3064101EE101AB8EE44
:1032D000411A31EE001AC0EE811ABCEEE11A80EDFF
:1032E000011A1168C1F3066101EE101AB8EE411A15
:1032F00031EE000A80EE801ABCEEC10A80ED020AAF
:1033000030BD04E001EE901ADFED092ABAE7002192
:10331000016041608160F3E72844025800000039F1
:10332000404402580024744A0090D0030024744C96
:10333000001BB74B2DE9FE4F0546DFF800A450F8FF
:10334000081B0024FD4FC943019005F128002646C3
:103350000AF1240A009008011DD4686E50B1B0F53E
:10336000801F0CD0B0F5001F0ED0B0F5401F1ED04E
:1033700001240FE0386840F40030386017E001980D
:10338000022102F073FB03E00098022102F0FEFB31
:1033900004000CD026462888C043C00523D4A86D5D
:1033A00005281ED2DFE800F00C11161B1B006A6E08
:1033B000DAF8001021F440111143CAF80010EAE7CE
:1033C000386840F40030386009E00198002102F0CC
:1033D0004DFB03E00098002102F0D8FB0446C4B185
:1033E00000E0012426462888DFF85083C04308F116
:1033F0002C0840052FD4D5F8A400B0F5C00F28D074
:1034000010DCB8B1B0F5001F19D0B0F5800F0FD1A6
:103410001AE0AA6DDAF8001021F007011143CAF88A
:103420000010E0E7B0F5000F13D0B0F5200F10D07A
:1034300001240FE0386840F40030386009E001985A
:10344000002102F013FB03E00098002102F09EFB34
:10345000044694B126462888C043000530D4D5F8E8
:10346000A800B0F1407F29D011DCC0B1B0F1807F5D
:103470001AD0B0F1007F10D11BE0D5F8A420D8F805
:10348000001021F460011143C8F80010E3E7B0F127
:10349000806F13D0B0F1A06F10D001240FE0386816
:1034A00040F40030386009E00198002102F0DEFAB3
:1034B00003E00098002102F069FB044694B126461F
:1034C0002868DFF878B2C0430BF1200B80011FD4CD
:1034D000E86CD8B110280FD0202812D0302815D091
:1034E000012414E0D5F8A820D8F8001021F0E061FC
:1034F0001143C8F80010E3E7386840F40030386042
:1035000004E00198022102F0B1FA044674B12646A3
:103510002888C043C0042BD4E86DB0F5005F20D0EC
:103520000DDCA0B1B0F5805F0FD115E0EA6CDBF8DF
:10353000001021F030011143CBF80010E8E7B0F59E
:10354000405F13D0B0F5804F10D001240FE03868F1
:1035500040F40030386009E00198002102F086FA5A
:1035600003E00098002102F011FB04468CB12646CE
:103570002888C043800429D4286EB0F5403F23D06A
:1035800010DC08B3B0F5803F14D0B0F5003F0FD188
:1035900015E0EA6DDAF8001021F4E0411143CAF8B1
:1035A0000010E5E7B0F5802F0ED0B0F5A02F0BD0BE
:1035B00001240AE00198012102F058FA03E0009882
:1035C000012102F0E3FA044694B126462888C0435C
:1035D00040042AD4D5F8AC00B0F1405F23D010DC11
:1035E00008B3B0F1805F14D0B0F1005F0FD115E0E7
:1035F0002A6EDAF8001021F4E0211143CAF8001015
:10360000E4E7B0F1804F0ED0B0F1A04F0BD0012411
:103610000AE00198012102F029FA03E00098012153
:1036200002F0B4FA044674B126462888C043000468
:103630001FD4E86ED8B1B0F1805F0ED0B0F1005F5A
:1036400010D0012414E0D5F8AC20D8F8001021F0F7
:10365000E0411143C8F80010E7E7386840F4003053
:10366000386004E00198012102F000FA044674B1C8
:1036700026462868C043C0011ED4A86CD0B10128DA
:103680000ED0022811D0032814D0012413E0EA6ED2
:10369000DAF8001021F040511143CAF80010E8E7B1
:1036A000386840F40030386004E00198022102F0EC
:1036B000DDF904466CB126462868C043400255D463
:1036C0001F48016841F480710160FFF7E3FB814608
:1036D0000EE0AA6CDBF8001021F003011143CBF8D7
:1036E0000010E9E7FFF7D6FBA0EB090064283BD800
:1036F00013480068C005F5D5BCBBDFF84090B5F8AD
:10370000B01009F14409D9F8000001F4407100F447
:103710004070884211D0D9F80010D9F8002021F467
:10372000407142F48032C9F80020D9F8002022F418
:103730008032C9F80020C9F8001003E02C44025878
:1037400000480258D5F8B000B0F5807F19D1FFF7D6
:10375000A1FB029011E000BFFFF79CFB0299411A08
:1037600041F28830814208D9032426462878DFF8C0
:103770001494C043C00721D03CE0D9F80000800772
:10378000EAD5D5F8B010C1F301200328FE480DD0CA
:10379000016821F47C510160B5F8B020D9F800101F
:1037A000C2F30B021143C9F80010DFE7F74A0368C0
:1037B00002EA111223F47C511143ECE7A86F182898
:1037C00016D005DCA0B1082808D0102804D10AE0E2
:1037D00020280DD028280BD001240AE001980121CF
:1037E00002F044F903E00098012102F0CFF9044609
:1037F00064B126462878C04380071ED4686F062827
:1038000019D2DFE800F0160C11161616AA6FD9F8B7
:10381000001021F038011143C9F80010EAE70198BF
:10382000012102F023F903E00098012102F0AEF932
:1038300004467CB100E0012426462878C0434007B6
:103840001FD4D5F89000062819D2DFE800F0160C36
:10385000111616166A6FD9F8001021F007011143EE
:10386000C9F80010E9E70198012102F0FFF803E030
:103870000098012102F08AF90446A4B100E0012475
:1038800026462878C04380062BD4D5F88C00B0F1AA
:10389000405F24D011DC10B3B0F1805F15D0B0F1DF
:1038A000005F10D116E0D5F89020D8F8001021F074
:1038B00007011143C8F80010E3E7B0F1804F0ED0C4
:1038C000B0F1A04F0BD001240AE00198002102F0D2
:1038D000CDF803E00098022102F058F9044694B1B3
:1038E00026462878C04340062BD4D5F89800B0F57A
:1038F000406F24D011DC10B3B0F5806F15D0B0F557
:10390000006F10D116E0D5F88C20D9F8001021F006
:10391000E0411143C9F80010E3E7B0F5805F0ED035
:10392000B0F5A05F0BD001240AE00198002102F05D
:103930009DF803E00098022102F028F9044694B1B2
:1039400026462878C04300062BD4D5F89C00B0F555
:10395000C04F24D011DC10B3B0F5005F15D0B0F526
:10396000804F10D116E0D5F89820D8F8001021F437
:10397000E0511143C8F80010E3E7B0F5004F0ED056
:10398000B0F5204F0BD001240AE00198002102F08D
:103990006DF803E00098022102F0F8F8044654B1F3
:1039A00026462878C04300071ED4D5F88000B0F51D
:1039B000805F0AD00FE0D5F89C20D8F8001021F4E1
:1039C00060411143C8F80010EBE70098022102F0B3
:1039D000DDF800B10126D5F88020D9F8001021F4D7
:1039E00040511143C9F800102878C043C00613D4D1
:1039F000D5F89400B0F5807F05D10098022102F03F
:103A0000C5F800B10126D5F89420D8F8001021F4AB
:103A100040711143C8F800102868C043000316D451
:103A2000D5F8A00038B1B0F5803F09D0B0F5003F1F
:103A30000BD001240AE00198002102F017F803E0FE
:103A40000098022102F0A2F804468CB126462868AC
:103A5000C043400322D4D5F88400B0F5801F11D0B4
:103A6000B0F5001F13D0B0F5401F15D0012414E0AD
:103A7000D5F8A020D8F8001021F440311143C8F83F
:103A80000010E4E7386840F40030386004E0009843
:103A9000012102F07BF804465CB126462868C04349
:103AA000C0031CD4286D70B1B0F5803F10D0012444
:103AB00014E0D5F88420D9F8001021F44011114306
:103AC000C9F80010EAE7386840F40030386004E0D4
:103AD0000198022101F0CAFF0446DCB1264628689D
:103AE000C043800005D40098022102F04FF800B1D5
:103AF00001262868C04380031BD4E86FB8B1B0F535
:103B0000807F10D0B0F5007F11D0B0F5407F0ED08F
:103B100001240DE02A6DDBF8001021F480311143FF
:103B2000CBF80010DBE7386840F4003038607CB335
:103B300026462868C043C00207D42A6FDAF800106E
:103B400021F000411143CAF800102868C0438002E8
:103B500007D4AA6EDAF8001021F080711143CAF878
:103B600000102868C043400009D40748016821F4C8
:103B7000004101600168D5F8B42011430160286854
:103B8000C04306E05444025810440258CFFFFF00DF
:103B90001DE007D46A6DDBF8001021F0405111439D
:103BA000CBF800102868C043000208D4D5F888205C
:103BB000D9F8001021F440011143C9F80010287908
:103BC0000024C04300F00100204309D00EE0EA6F5A
:103BD000D9F8001021F440711143C9F80010A8E78A
:103BE0000198002101F042FF00B106462879C04348
:103BF00000F00200204305D10198012101F036FFB9
:103C000000B106462879C04300F00400204305D1E6
:103C10000198022101F02AFF00B106462879C0432D
:103C200000F00800204305D10098002101F0AEFF0C
:103C300000B106462879C04300F01000204305D1AA
:103C40000098012101F0A2FF00B106462879C04387
:103C500000F02000044304D10098022101F096FFF7
:103C600000B916B10120BDE8FE8F0020FBE700007F
:103C70002DE9F05F04000F467ED0DFF83882D8F8D7
:103C8000000000F00F00B8420CD2D8F8001021F06C
:103C90000F013943C8F80010D8F8000000F00F00F9
:103CA000B84269D12078844D40070AD52069296837
:103CB00001F07001884204D9296821F070010143A4
:103CC000296020787C4E361D00070AD5606931686E
:103CD00001F07001884204D9316821F0700101437C
:103CE00031602078C0060AD5A069316801F4E0612E
:103CF000884204D9316821F4E061014331602078C1
:103D0000DFF8B4B180060BF1080B0CD5E169584619
:103D1000DBF8002002F07002914204D9026822F020
:103D200070020A430260207880070AD5E06829689B
:103D300001F00F01884204D9296821F00F010143E5
:103D400029602078C0073ED05B49A26828681839EE
:103D500020F47060104328606068022818D003289F
:103D600019D00968012819D0490700294ADADFF873
:103D700048A1AAF1080A00E044E0DAF8002022F0A5
:103D800007020243CAF80020FFF784F8814612E0D8
:103D900009688903E9E709688901E6E7C905E4E7F5
:103DA000FFF778F8A0EB090141F28830814202D98F
:103DB0000320BDE8F09F6168DAF8000000F03800E9
:103DC000B0EBC10FECD1207880070AD5E0682968F4
:103DD00001F00F01884204D2296821F00F0101434C
:103DE0002960D8F80010404601F00F01B9420BD904
:103DF000016821F00F0139430160006800F00F00F5
:103E0000B84201D00120D4E7207840070AD52069C4
:103E1000296801F07001884204D2296821F07001FC
:103E200001432960207800070AD56069316801F0F4
:103E30007001884204D2316821F070010143316081
:103E40002078C0060AD5A069316801F4E061884293
:103E500004D2316821F4E0610143316020788006AA
:103E60000CD5E1695846DBF8002002F0700291425F
:103E700004D2026822F070020A43026000F09AF84D
:103E80000E492A682B68C2F3032203F00F038A5CF1
:103E9000C95C02F01F0201F01F01D040084A20FA5D
:103EA00001F111600749086007480068BDE8F05F4C
:103EB000FFF72CB8002000521844025888830008ED
:103EC00028000024240000241C00002470B5144C99
:103ED0003F220260124A24680832131D114D04F07B
:103EE0000704446016681C1D06F470668660166838
:103EF00006F00F06C660126802F0700202611A68CE
:103F000002F0700242611A6802F4E0628261226883
:103F100002F07002C261286800F00F00086070BDF6
:103F2000104402580020005230B500F043F80B4A0C
:103F30000B490C4B15681468C5F3032204F00F04F9
:103F40008A5C095D02F01F0201F01F01D040064AA1
:103F500020FA01F119601060084630BD184402587B
:103F600088830008280000242400002400B5FFF7FF
:103F7000DBFF05490968054AC1F30211515C01F0F4
:103F80001F01C84000BD00001C440258888300087F
:103F900000B5FFF7C9FF05490968054AC1F30221C9
:103FA000515C01F01F01C84000BD00001C440258D4
:103FB00088830008454970B545480968434B103B64
:103FC00011F0380208D00111082A03D0102A0BD0B2
:103FD000182A0BD0084670BD19688906FBD51968E8
:103FE000C1F3C101C84070BD3A4870BD3749374D73
:103FF00018310C1D24350A68096826682D6802F0FE
:10400000030406F00102C1F30511C5F3CC0515FB4D
:1040100002F200EE102AB8EE400AE9B32F4ADFEDB3
:104020002E0AB7EE001A6CB1DFED2D1A012C01D06B
:10403000022C43D002EE101A1068F8EE422A81EEEC
:10404000A22A1EE01C68A40611D51B6801EE901A76
:104050001168C3F3C103F8EE612AD84001EE900A5B
:10406000C1F30800F8EE611A81EEA22A0BE001EE1E
:10407000901ADFED1C2A00BFF8EE611A106882EE7C
:10408000A12AC0F3080001EE900AF8EE611A40EE92
:10409000201A31EE810A00E015E022EE000A1068D5
:1040A000C0F34620401C00EE900AF8EE600A80EE55
:1040B000201ABCEEC10A10EE100A70BD01EE901A73
:1040C000DFED092AD8E7002070BD00001044025837
:1040D0000090D00300366E010000003930440258D1
:1040E0000024744A0024744C001BB74B2DE9F05F88
:1040F00004007DD0FF4F2078FE4D1837DFF8F483A1
:10410000103DC00748D0D8F80000396800F03800EA
:10411000102815D0182803D101F0030002280FD071
:104120006068B0F5803F12D010B1B0F5A02F18D064
:10413000286820F480302860286820F4802009E076
:104140002868800328D560680028D2D024E0286839
:1041500040F480302860606888B1FEF79BFE064618
:1041600009E0286840F480202860F0E7FEF792FE1E
:10417000801B64287ED828688003F7D50CE0FEF702
:1041800089FE064605E000BFFEF784FE801B64281A
:10419000F0D828688003F7D42078800756D5D8F85F
:1041A0000000DFF85093396810F03800A9F10C09CD
:1041B0000ED0182801D188070AD0E068A8B3296872
:1041C00021F0190101432960FEF764FE064628E04C
:1041D0002868400702D5E06800288AD0E16828688E
:1041E00020F0190008432860FEF754FE064606E05A
:1041F000D2E000BFFEF74EFE801B0228BAD8286826
:104200004007F7D5217CD9F8002022F0FE4242EA8F
:104210000161C9F8001019E0FEF73CFE801B02287E
:10422000A8D828684007F7D5ECE7FFE7286820F012
:1042300001002860FEF72EFE064604E0FEF72AFE87
:10424000801B022896D828684007F7D42078C0063B
:1042500046D5D8F80000DFF89C92396800F03800A5
:10426000A9F10409082812D0182805D101F003008B
:10427000012800E0CEE00AD0E0690028286820D0BC
:1042800040F080002860FEF705FE064615E028682D
:10429000C00502D5E06980287ED194F82010D9F8B5
:1042A000002022F07C5242EA0161C9F8001017E0B8
:1042B000FEF7F0FD801B0228A0D82868C005F7D5BE
:1042C000EBE720F080002860FEF7E4FD064604E0FE
:1042D000FEF7E0FD801B022890D82868C005F7D4BF
:1042E0002078000729D58348616964300029814618
:1042F000016811D041F001010160FEF7CBFD0646D7
:1043000005E000BFFEF7C6FD801B022888D8D9F85B
:1043100000008007F6D510E021F001010160FEF7F2
:10432000B9FD064605E000BFFEF7B4FD801B02287C
:1043300070D8D9F800008007F6D42078800623D5FD
:10434000A0690028286810D040F480502860FEF74B
:10435000A1FD064605E000BFFEF79CFD801B02287C
:1043600058D828688004F7D50EE020F480502860E3
:10437000FEF790FD064604E0FEF78CFD801B022848
:1043800048D828688004F7D42078400751D5DFF852
:104390006891D9F8001000E015E141F48071C9F886
:1043A0000010FEF777FD064605E000BFFEF772FD40
:1043B000801B64282ED8D9F80000C005F6D54D4ED4
:1043C000A068603601280AD008B1052813D03068EB
:1043D00020F001003060306820F0040002E0306816
:1043E00040F001003060A06841F2883A98B1FEF7D1
:1043F00051FD81460AE0306840F004003060EEE78D
:10440000FEF748FDA0EB0901514503D8306880074D
:10441000F6D50EE072E0FEF73DFD814606E000BFF6
:10442000FEF738FDA0EB0901514567D830688007D9
:10443000F6D4606A00287CD0DFF8B8A0D8F8001065
:104440000AF1200A4FF6F87B0AF10408C1F3C20111
:104450000329AAF104096DD00228286820F0807091
:10446000286003D0FEF716FD044681E0FEF712FD3A
:10447000064604E0FEF70EFD801B022875D828686A
:104480008001F7D4E26A40F2F331386854F8283FEB
:10449000884340EA021018433860217B4FF4FE0C39
:1044A00022894FF0FE47208A4902267D521E401E77
:1044B000A1F5007189B2C2F308021143761E0CEA1D
:1044C00000400143484607EA06621143CAF800105B
:1044D000D9F8001021F00101C9F80010D8F8003017
:1044E000266A23EA0B0343EAC601C8F80010D9F88C
:1044F000001004E0104402580048025835E0A26958
:1045000021F00C011143C9F800100168E26921F0A3
:10451000020111430160016841F4803101600168CA
:1045200041F400310160016841F4802101600168BB
:1045300001E06CE020E041F001010160286840F0FA
:1045400080702860FEF7A6FC044604E0FEF7A2FC9B
:10455000001B022809D828688001F7D557E000BF62
:10456000FEF798FC001B022802D90320BDE8F09F4B
:1045700028688001F4D44AE039680128DAF800009C
:1045800021D0A26A01F0030393421CD1E26AC1F375
:1045900005118A4217D1216BC0F30802491E8A42D5
:1045A00011D1616BC0F34622491E91420BD1A16B20
:1045B000C0F30642491E914205D1E16BC0F306608B
:1045C000491E814201D00120D0E7A16C4646D8F8AF
:1045D0000000C0F3CC00814219D0D9F800004D464C
:1045E00020F00100C9F80000FEF754FC4FEA000774
:1045F000FEF750FCB842FBD0A26C306820EA0B00FA
:1046000040EAC2003060286840F0010028600020C5
:10461000ACE700002DE9F047040029D0594A4FF0DB
:1046200000092068584B594D9042C4F8289006D094
:10463000984204D0A84202D0E1680F2918D8E16856
:104640004FF0010AE76B0831C9080AEB57167143AE
:10465000904205D0984203D0A84201D0082907D83B
:10466000904203D0984201D0A84204D1102902D927
:104670000120BDE8F08794F8810020B9204684F835
:10468000809000F085F8022084F88100206801689D
:1046900021F0010101602068A1698268B1F1806F99
:1046A00002F4F81110D16268B2F5800F01D01AB18E
:1046B0000AE0A26B22B107E0A26BB2F1805F03D1E6
:1046C000026842F4805202606068400209D5E068E6
:1046D000072806D32068236D026822F480721A43EB
:1046E00003E02068026822F480720260A66AE06932
:1046F000E26B25683043E3680A4310431843A8601F
:10470000D4E90D02D4E90581636A25691843D4F818
:1047100020C00A43266810432843A56DD4E90172DE
:10472000D4E9123140EA080040EA0C00384308435B
:10473000104318432843F060606868B920688168B6
:1047400021F4C05141F4006181602068816821F446
:10475000C06141F4806181602068016D21F0010138
:1047600001656068400206D52068626DC16821F06D
:1047700000411143C160C4F8849084F881A00020F6
:1047800077E700000030014000380040003C004066
:1047900010B5B4B0044614212EA8FBF710FFB821C1
:1047A0006846FBF70CFF1A49206888422DD100208B
:1047B0004FF480414FF0A0422B92CDE900106846A3
:1047C000FEF7B8FD08B1FCF7A2F91248016841F004
:1047D00020010160006800F0200033900D4814387B
:1047E000016841F00101016000680DF1B80C02217F
:1047F00000F001003390A0200022032308248CE85D
:104800001F0005482EA9FEF72DFA34B010BD000098
:1048100000140058F4440258000002582DE9FC5FCF
:104820000446006817468A460021994694F880207D
:1048300000F1200B0191012A0DD04FF0010884F8FE
:104840008080FEF727FB064694F8810000250128AA
:1048500004D0022034E00220BDE8FC9FBAF1000F32
:104860002DD067B3A1680320C4F85CA0A4F86070E1
:1048700084F88100C4F88450A4F862706566A4F8D6
:104880006850A4F86A50B1F5C02F656725672068A5
:1048900019D0C16821F4C02141F40031C160206801
:1048A00041686FF30F01394341602068016841F0AE
:1048B000010101606068B0F5800F09D00DE00120B2
:1048C00084F88050C8E7016841F400610160E6E7C0
:1048D0002068016841F400710160E0680F281CD86D
:1048E00020E02068416989070BD5E16D0968016204
:1048F000E06D001DE065B4F86200401EA4F862009F
:104900000BE0FEF7C7FA811B494503D3B9F1FF3F1E
:1049100003D099E0B9F1000F30D0B4F8620000285C
:10492000DFD177E007282DD870E02068416989073A
:104930001CD5B4F8621001290BD9E16B49B1E16DC6
:1049400009680162E06D001DE065B4F86200801E38
:1049500009E0E06D0188ABF80010E06D801CE065B7
:10496000B4F86200401EA4F862000BE0FEF792FA71
:10497000811B494503D3B9F1FF3F03D064E0B9F18E
:10498000000F61D0B4F862000028CED142E0206868
:10499000416989072ED5B4F8621003290CD9E16B5F
:1049A000402909D9E16D09680162E06D001DE065EB
:1049B000B4F86200001F1AE0B4F8621001290CD9A3
:1049C000E16B51B1E06D0188ABF80010E06D801C27
:1049D000E065B4F86200801E09E0E16D097880F8B6
:1049E0002010E06D401CE065B4F86200401EA4F8A1
:1049F00062000BE0FEF74EFA811B494503D3B9F183
:104A0000FF3F03D020E0B9F1000F1DD0B4F86200E1
:104A10000028BCD100224B4608212046009601F018
:104A2000CDF928B1D4F8840040F02000C4F8840007
:104A3000204601F064F984F88180D4F8840084F879
:104A4000805080B1012007E7204601F058F9D4F8E2
:104A5000841084F8805041F48071C4F8841084F884
:104A600081800320F8E60198F6E6704770477047AA
:104A7000F0B590F83C20012A41D0224E012480F864
:104A80003C40022280F83D2002681F4D5368B2422C
:104A9000D2F808C001D0AA4203D14F6823F47003B2
:104AA0003B430F6823F070031F4357600268B24214
:104AB00019D0B2F1804F16D0144B9A4213D0144B38
:104AC0009A4210D0134B9A420DD0AA420BD0124BEF
:104AD0009A4208D0114B9A4205D0114B9A4202D00B
:104AE000104B9A4204D189682CF0800319439160DD
:104AF000002180F83D4080F83C100846F0BD0220BF
:104B0000F0BD00000000014000040140000400402E
:104B100000080040000C0040001800400040014028
:104B200000E0004000E4004010B5040003D094F819
:104B30003D0010B107E0012010BD002084F83C00CA
:104B4000204600F023F8022084F83D002068211D53
:104B500001F0A0FA012084F8480084F83E0084F8AF
:104B60003F0084F8400084F8410084F8420084F853
:104B7000430084F8440084F8450084F8460084F833
:104B8000470084F83D00002010BD000008B5006813
:104B90000B49884212D10B48016841F010010160B5
:104BA00000680022052100F0100000903620FEF77A
:104BB0000FFABDE808403620FEF7FCB908BD00003A
:104BC00000100040E844025890F83D10012901D03F
:104BD000012070471A4A022180F83D100168CB6815
:104BE00043F00103CB60006890421AD0B0F1804FCF
:104BF00017D01449884214D01349884211D0134960
:104C000088420ED0124988420BD01249884208D0FF
:104C10001149884205D01149884202D01049884282
:104C200007D181680F4A1140062906D0B1F5803FAF
:104C300003D0016841F001010160002070470000CD
:104C4000000001400004004000080040000C00404B
:104C500000040140001800400040014000E0004016
:104C600000E4004007000100704770B5044600688A
:104C700000250169C943890715D4C168C94389075B
:104C800011D4EA1E02610121217720688069800722
:104C9000204602D0FFF7E8FF04E000F0A7F8204626
:104CA00000F0A5F8257720680169C943490717D4A2
:104CB000C168C943490713D402216FF0040202619D
:104CC00021772068806910F4407F204602D0FFF7EA
:104CD000CBFF04E000F08AF8204600F088F8257742
:104CE00020680169C943090716D4C168C943090787
:104CF00012D404216FF00802026121772068C06994
:104D00008007204602D0FFF7AFFF04E000F06EF806
:104D1000204600F06CF8257720680169C943C90670
:104D200017D4C168C943C90613D408216FF0100213
:104D3000026121772068C06910F4407F204602D0CC
:104D4000FFF792FF04E000F051F8204600F04FF822
:104D5000257720680169C943C90708D1C168C943DB
:104D6000C90704D1891E0161204600F041F820687E
:104D70000169C943090609D4C168C943090605D4B4
:104D80006FF0800101612046FFF770FE2068016925
:104D9000C943C90509D4C168C943090605D46FF4DC
:104DA000807101612046FFF760FE20680169C943F8
:104DB000490609D4C168C943490605D46FF04001CA
:104DC0000161204600F02EF820680169C943890678
:104DD0000BD4C168C943890607D46FF02001016173
:104DE0002046BDE87040FFF742BE70BD7047704777
:104DF00010B50A4904460068884205D1012001F037
:104E0000B5F9022001F0B2F905492068884203D1C2
:104E1000BDE81040FEF744B810BD0000001000408F
:104E200000E00040704730B590F88410012918D098
:104E3000012280F884202421C0F888100022202438
:104E400001680B680D6823F0005325F001050D6023
:104E5000426601680B60C0F8884080F884201046E4
:104E600030BD022030BD10B50446D0F88C0020289B
:104E700001D0022010BD61B15AB10123E3660020C8
:104E80002067204601F04CFD0028F3D1E16E012996
:104E900001D0012010BD226810211162226852E861
:104EA000001F41F0100142E80013002BF6D110BDA5
:104EB00070B50068194A90422ED10A2927D8184C9B
:104EC0002078552815D16078552812D1E07805282A
:104ED0000FD120791C280CD1A1780023114AB4F8F5
:104EE000050001EB410502EB8506736002F8251011
:104EF000708014220A490C48FFF7B5FF084A0A32AD
:104F00000020411C235C1354C8B20A28F9D3BDE821
:104F10007040012001F03CB970BD000000780040F5
:104F2000D4000024E04500245C050024704770B5DF
:104F3000044690F8840001281DD0012284F88420C2
:104F40002420C4F8880020680568026822F0010265
:104F500002602068826822F060620A438260204614
:104F600001F02CF92268202100201560C4F8881077
:104F700084F8840070BD022070BD70B5044690F8BE
:104F8000840001281DD0012284F884202420C4F844
:104F9000880020680568026822F00102026020682B
:104FA000826822F060420A438260204601F006F9DE
:104FB0002268202100201560C4F8881084F884003D
:104FC00070BD022070BD70477047000070B50E497B
:104FD0000446006800250D4E884207D10C480A227D
:104FE0003146FFF740FF356075603581094920681B
:104FF000884208D105490A2207481431FFF733FFD8
:105000007561B561B58370BD00780040D40000249F
:105010005C05002400100140F00500242DE9F0415A
:1050200007680025044640F60F030226F869396830
:10503000BA6818420AD183067ED501F0200302F037
:10504000805C53EA0C0377D0616F74E1CF4BDFF8DB
:1050500040C3134001EA0C0C53EA0C0C6CD05FEA1D
:10506000C07C0CD05FEAC15C09D54FF0010CC7F8D9
:1050700020C0D4F8907047F00107C4F890708707FB
:1050800009D5D70707D027683E62D4F8906046F06C
:105090000406C4F8906046070AD5D60708D02768EA
:1050A00004263E62D4F8906046F00206C4F8906090
:1050B00006070CD501F020061E4308D026680823F9
:1050C0003362D4F8903043F00803C4F890300305FD
:1050D0000BD54B0109D526684FF400633362D4F831
:1050E000903043F02003C4F89030D4F89030002B77
:1050F0003DD0800609D501F0200002F08051084320
:1051000003D0616F09B1204688472168D4F8900028
:105110008968490602D410F0280F2AD0204601F0F1
:10512000CFF92068806840061ED52068083050E816
:10513000001F21F0400100E021E040E80012002AB9
:10514000F3D1D4F8800078B192490165D4F8800099
:10515000FCF720F800280AD0D4F88000016D00E0A8
:105160002046BDE8F04108472046FFF72FFFBDE885
:10517000F0812046FFF72AFFC4F89050F7E7D4F8F3
:105180006CC02023BCF1010F7ED15FEAC06C7BD5DF
:105190005FEAC16C78D510203862206880684006CC
:1051A00073D5D4F880107C4A0868904234D07A4A8B
:1051B0001832904230D0784A303290422CD0764A21
:1051C0004832904228D0744A6032904224D0724AC9
:1051D0007832904220D0704A903290421CD06E4A71
:1051E000A832904218D06D4A904215D06B4A1832BE
:1051F000904211D0694A303290420DD0674A48320D
:10520000904209D0654A6032904205D0634A7832B4
:10521000904201D0614A903240680004000CA6D050
:10522000B4F85C208242A2D9A4F85E00C869B0F547
:10523000807F2FD0216851E8000F20F4807041E872
:105240000002002AF6D12068083050E8001F21F043
:10525000010140E80012002AF5D12068083050E82A
:10526000001F21F0400140E80012002AF5D1C4F8E7
:105270008C30E566216851E8000F20F0100041E80D
:105280000002002AF6D101E040E00BE0D4F88000F3
:10529000FBF7D0FD2667B4F85C00B4F85E10401A46
:1052A00081B22FE0B4F85C00B4F85E10B4F85E2070
:1052B000401A81B2002AB2D00029B0D0226852E848
:1052C000000F20F4907042E80007002FF6D1344F11
:1052D000206800F1080050E8002F02EA070240E8C9
:1052E000002CBCF1000FF3D1C4F88C30E566656783
:1052F000206850E8002F22F0100240E80023002B25
:10530000F6D126672046FFF7D3FD30E7C60209D560
:10531000560207D54FF4801038622046BDE8F041B0
:10532000FFF752BE06060AD501F0800602F400021D
:10533000164304D0A16F00297FF412AF17E742068D
:1053400011D54A060FD52046026852E8001F21F009
:10535000400142E80014002CF6D1C0F8883085677F
:1053600000F090F903E7020206D54A0004D5204672
:10537000BDE8F041FFF727BEC001C6D50029C4DA59
:105380002046BDE8F041FFF7D1BD0000010000104C
:105390002001000473630008100002401004024062
:1053A000FEFFFFEF10B5040003D0D4F8880010B161
:1053B00007E0012010BD002084F88400204600F0A2
:1053C00027F82420C4F888002068016821F0010132
:1053D0000160204601F0B6F80128EBD0A06A10B1B8
:1053E000204600F00DFF2068416821F490414160A3
:1053F0002068816821F02A0181602068016841F0FD
:10540000010101602046BDE8104000F05DBF0000D2
:105410002DE9F047B4B0054614212EA8FBF7CFF8CC
:10542000B8216846FBF7CBF86A49022628680024B1
:10543000674F4FF4806988424FF007084FF0400AE9
:1054400063D100201D940221CDE900106846FDF7CC
:1054500071FF08B1FBF75BFB5D480830016841F064
:1054600080410160006800F080403390386840F06F
:105470001000386038684FF4C0712E912EA900F0EA
:105480001000CDE92F643194CDE932805248FDF708
:10549000E9FB524E4F2152484F4686E81300C6E9B9
:1054A000034974613046B461F46134627462FCF79C
:1054B00027FB08B1FBF72BFBDFF820815023C5F851
:1054C000806008F17808B5634046454A1832C0E963
:1054D0000347C8F81440C8F81840C8F81C40C8F87A
:1054E000204088E80C04C8F82440FCF709FB08B108
:1054F000FBF70DFBC5F87C8000220521C8F8385069
:105500005220FDF765FD52205DE0364988425CD1AE
:1055100000201E940121CDE900106846FDF70AFF26
:1055200008B1FBF7F4FA2A481030016841F0100185
:105530000160006800F010003390386840F001000E
:10554000386038684FF4C0612E912EA900F0010038
:10555000CDE92F643194CDE932802348FDF782FBF9
:105560001E4F29221E49C846F0373031384687E899
:105570001600C7E903497C61BC61FC613C627C6246
:10558000FCF7BEFA08B1FBF7C2FA184E2A23C5F899
:105590008070BD633046124AC6E9034874614832E0
:1055A000B461F4613462746286E80C04FCF7A8FA12
:1055B00008B1FBF7ACFAEE6700220521B5632520A0
:1055C000FDF706FD2520FDF7F5FC34B0BDE8F087BA
:1055D000E04402580078004000100258840600247D
:1055E000100002400010014000000258EC070024A7
:1055F0007047704770B50446D0F88800202801D065
:10560000022070BD39B332B3E06F0023216521253C
:10561000A4F85420A4F85620C4F89030C4F8885058
:10562000D8B11549C163E16F14480864E16F1448AB
:10563000C864E06F036513462068E56F00F1280237
:10564000216D2846FCF73AFC38B11021C4F89010BF
:105650002020C4F88800012070BD21684020086225
:105660002068083050E8001F41F0800140E8001237
:10567000002AF5D1002070BD77640008B7640008E7
:105680008763000870477047FEE702F049FCFBF7AC
:1056900079FB012002F04EF8F7E70000154808B545
:1056A000016841F00101016000680022052100F05D
:1056B000010000900B20FDF78BFC0B20FDF77AFC1E
:1056C000002205210C20FDF783FC0C20FDF772FC65
:1056D000002205210D20FDF77BFC0D20FDF76AFC63
:1056E000002205210E20FDF773FCBDE808400E20C6
:1056F000FDF760BCD84402581B4800222DE9F04158
:10570000184D01268260022405601425C260042120
:1057100006744FF0770C4274082386742827C0E97A
:1057200005650D25C0F81CC0C0E90A450463C0E941
:105730000D21C0E90F13C0E91113C0E91314C0E92A
:105740001513C3650366C0E91921C0E90876FDF7A2
:105750009FF8002803D0BDE8F041FBF7D8B9BDE8B9
:10576000F081000000A00040480300242DE9F04132
:105770001C4800211A4C01260D254FF0770C0223FE
:105780008160042204601424C160282706744174D7
:105790008674C0E9056440F20644C0F81CC0C0E944
:1057A0000A3500F14805C0E90C3481630323C16365
:1057B0000824C0E9101285E80E00C0E91521C0E9EF
:1057C0001714C0E91912C0E90876FDF761F800283E
:1057D00003D0BDE8F041FBF79AB9BDE8F0810000C5
:1057E00000A40040E803002410B596B011491C2223
:1057F0006846FAF7B2FE0021684601F0A7FF0E4C9A
:105800001C220C491C31206007A8FAF7A6FE0021D3
:1058100007A801F09BFF07491C2260600EA83831E1
:10582000FAF79BFE00210EA801F090FFA06016B0D1
:1058300010BD0000A882000808000024F0B587B061
:1058400014216846FAF7BBFE2548016841F00401BF
:105850000160016801F004010591016841F08001D7
:105860000160016801F080010591016841F00101CA
:105870000160016801F001010591016841F010012A
:105880000160016801F010010591016841F0080113
:105890000160016801F008010591016841F0020111
:1058A000016000684FF460460E4F012200F00200D4
:1058B000314605903846FDF7E8FA002500960124A8
:1058C00069463846CDE901450395FDF7CBF9064811
:1058D0006946CDE900450294FDF7C4F907B0F0BD73
:1058E000E044025800080258000002582DE9F04137
:1058F0004FF4800715480021134EBD000722AC006D
:10590000C0E90321A300C0E9073141629A00816226
:105910004FF4003CC162C0E90D21C16301644164E0
:105920008164C164016541658165C0E9055480E811
:10593000C010FEF76FFE002803D0BDE8F041FBF772
:10594000E6B8BDE8F0810000001400588804002487
:105950003EB5104800244FF47A710D4BF0220094AC
:1059600001940294C0E902418461C0E90032FFF76A
:10597000DBF808B1FBF7CBF80648694600940294BF
:10598000FFF776F8002801D0FBF7C1F83EBD000014
:1059900000100040100500241848002110B5164CD6
:1059A0000C224FF4E1330460C0E90131C160C0E969
:1059B00004128161C161016241628162FFF7F2FC00
:1059C00008B1FBF7A4F80D480021FFF7D6FA08B19B
:1059D000FBF79DF809480021FFF7A9FA08B1FBF78A
:1059E00096F80648FFF71FFA002803D0BDE81040DC
:1059F000FBF78DB810BD0000007800405C05002466
:105A00001848002110B5164C0C224FF46123046095
:105A1000C0E90131C160C0E904128161C161016264
:105A200041628162FFF7BEFC08B1FBF770F80D48D8
:105A30000021FFF7A2FA08B1FBF769F80948002135
:105A4000FFF775FA08B1FBF762F80648FFF7EBF9C4
:105A5000002803D0BDE81040FBF759B810BD000086
:105A600000100140F0050024FEE7FEE72DE9F047B5
:105A7000454D044689464FF0000A2868C043800718
:105A80000AD0414E283E306820F080603060FDF73B
:105A900001FA0746B04608E00120BDE8F08700BFE4
:105AA000FDF7F8F9C01B022867D8D8F800000001FC
:105AB000F6D4206829684FF4FE0721F47C313E02B9
:105AC00041EA00302860207AA389B4F804C040027B
:105AD0002D4D2D495B1E227CACF1010C1035091DAA
